{
  "contractName": "token",
  "abi": [
    {
      "inputs": [
        {
          "internalType": "string",
          "name": "tokentype",
          "type": "string"
        },
        {
          "internalType": "string",
          "name": "tokenname",
          "type": "string"
        },
        {
          "internalType": "string",
          "name": "tokensymbol",
          "type": "string"
        },
        {
          "internalType": "uint256",
          "name": "tokendecimal",
          "type": "uint256"
        },
        {
          "internalType": "uint256",
          "name": "tokensupply",
          "type": "uint256"
        },
        {
          "internalType": "address",
          "name": "owneraddress",
          "type": "address"
        }
      ],
      "name": "createtoken",
      "outputs": [
        {
          "internalType": "bool",
          "name": "",
          "type": "bool"
        }
      ],
      "stateMutability": "nonpayable",
      "type": "function"
    },
    {
      "inputs": [
        {
          "internalType": "string",
          "name": "tokenname",
          "type": "string"
        }
      ],
      "name": "gettoken",
      "outputs": [
        {
          "internalType": "string",
          "name": "tokentype",
          "type": "string"
        },
        {
          "internalType": "string",
          "name": "tokensymbol",
          "type": "string"
        },
        {
          "internalType": "uint256",
          "name": "tokendecimal",
          "type": "uint256"
        },
        {
          "internalType": "uint256",
          "name": "tokensupply",
          "type": "uint256"
        },
        {
          "internalType": "address",
          "name": "owneraddress",
          "type": "address"
        }
      ],
      "stateMutability": "view",
      "type": "function",
      "constant": true
    },
    {
      "inputs": [
        {
          "internalType": "string",
          "name": "tokenname",
          "type": "string"
        },
        {
          "internalType": "string",
          "name": "sccode",
          "type": "string"
        }
      ],
      "name": "generatesccode",
      "outputs": [],
      "stateMutability": "nonpayable",
      "type": "function"
    }
  ],
  "bytecode": "0x608060405234801561001057600080fd5b50610ab2806100206000396000f3fe608060405234801561001057600080fd5b50600436106100415760003560e01c80630bafad4a14610046578063179cbbe11461006257806370b620a214610092575b600080fd5b610060600480360381019061005b9190610655565b6100c6565b005b61007c60048036038101906100779190610761565b610100565b604051610089919061085d565b60405180910390f35b6100ac60048036038101906100a79190610878565b61025e565b6040516100bd959493929190610967565b60405180910390f35b806000836040516100d79190610a04565b908152602001604051809103902060060190805190602001906100fb929190610458565b505050565b6000866000876040516101139190610a04565b90815260200160405180910390206000019080519060200190610137929190610458565b50856000876040516101499190610a04565b9081526020016040518091039020600101908051906020019061016d929190610458565b508460008760405161017f9190610a04565b908152602001604051809103902060020190805190602001906101a3929190610458565b50836000876040516101b59190610a04565b908152602001604051809103902060030181905550826000876040516101db9190610a04565b908152602001604051809103902060040181905550816000876040516102019190610a04565b908152602001604051809103902060050160006101000a81548173ffffffffffffffffffffffffffffffffffffffff021916908373ffffffffffffffffffffffffffffffffffffffff160217905550600190509695505050505050565b606080600080600080866040516102759190610a04565b90815260200160405180910390206000016000876040516102969190610a04565b90815260200160405180910390206002016000886040516102b79190610a04565b9081526020016040518091039020600301546000896040516102d99190610a04565b90815260200160405180910390206004015460008a6040516102fb9190610a04565b908152602001604051809103902060050160009054906101000a900473ffffffffffffffffffffffffffffffffffffffff1684805461033990610a4a565b80601f016020809104026020016040519081016040528092919081815260200182805461036590610a4a565b80156103b25780601f10610387576101008083540402835291602001916103b2565b820191906000526020600020905b81548152906001019060200180831161039557829003601f168201915b505050505094508380546103c590610a4a565b80601f01602080910402602001604051908101604052809291908181526020018280546103f190610a4a565b801561043e5780601f106104135761010080835404028352916020019161043e565b820191906000526020600020905b81548152906001019060200180831161042157829003601f168201915b505050505093509450945094509450945091939590929450565b82805461046490610a4a565b90600052602060002090601f01602090048101928261048657600085556104cd565b82601f1061049f57805160ff19168380011785556104cd565b828001600101855582156104cd579182015b828111156104cc5782518255916020019190600101906104b1565b5b5090506104da91906104de565b5090565b5b808211156104f75760008160009055506001016104df565b5090565b6000604051905090565b600080fd5b600080fd5b600080fd5b600080fd5b6000601f19601f8301169050919050565b7f4e487b7100000000000000000000000000000000000000000000000000000000600052604160045260246000fd5b61056282610519565b810181811067ffffffffffffffff821117156105815761058061052a565b5b80604052505050565b60006105946104fb565b90506105a08282610559565b919050565b600067ffffffffffffffff8211156105c0576105bf61052a565b5b6105c982610519565b9050602081019050919050565b82818337600083830152505050565b60006105f86105f3846105a5565b61058a565b90508281526020810184848401111561061457610613610514565b5b61061f8482856105d6565b509392505050565b600082601f83011261063c5761063b61050f565b5b813561064c8482602086016105e5565b91505092915050565b6000806040838503121561066c5761066b610505565b5b600083013567ffffffffffffffff81111561068a5761068961050a565b5b61069685828601610627565b925050602083013567ffffffffffffffff8111156106b7576106b661050a565b5b6106c385828601610627565b9150509250929050565b6000819050919050565b6106e0816106cd565b81146106eb57600080fd5b50565b6000813590506106fd816106d7565b92915050565b600073ffffffffffffffffffffffffffffffffffffffff82169050919050565b600061072e82610703565b9050919050565b61073e81610723565b811461074957600080fd5b50565b60008135905061075b81610735565b92915050565b60008060008060008060c0878903121561077e5761077d610505565b5b600087013567ffffffffffffffff81111561079c5761079b61050a565b5b6107a889828a01610627565b965050602087013567ffffffffffffffff8111156107c9576107c861050a565b5b6107d589828a01610627565b955050604087013567ffffffffffffffff8111156107f6576107f561050a565b5b61080289828a01610627565b945050606061081389828a016106ee565b935050608061082489828a016106ee565b92505060a061083589828a0161074c565b9150509295509295509295565b60008115159050919050565b61085781610842565b82525050565b6000602082019050610872600083018461084e565b92915050565b60006020828403121561088e5761088d610505565b5b600082013567ffffffffffffffff8111156108ac576108ab61050a565b5b6108b884828501610627565b91505092915050565b600081519050919050565b600082825260208201905092915050565b60005b838110156108fb5780820151818401526020810190506108e0565b8381111561090a576000848401525b50505050565b600061091b826108c1565b61092581856108cc565b93506109358185602086016108dd565b61093e81610519565b840191505092915050565b610952816106cd565b82525050565b61096181610723565b82525050565b600060a08201905081810360008301526109818188610910565b905081810360208301526109958187610910565b90506109a46040830186610949565b6109b16060830185610949565b6109be6080830184610958565b9695505050505050565b600081905092915050565b60006109de826108c1565b6109e881856109c8565b93506109f88185602086016108dd565b80840191505092915050565b6000610a1082846109d3565b915081905092915050565b7f4e487b7100000000000000000000000000000000000000000000000000000000600052602260045260246000fd5b60006002820490506001821680610a6257607f821691505b60208210811415610a7657610a75610a1b565b5b5091905056fea26469706673582212200c4e5fae8444121fc7cc5f91d10ae2c7b2ab41441f6963ece78efba1a118ccea64736f6c634300080a0033",
  "immutableReferences": {},
  "source": "// SPDX-License-Identifier: MIT\r\npragma solidity >=0.4.22 <0.9.0;\r\n\r\ncontract token\r\n{\r\n    struct tokenstruct\r\n    {\r\n    string  tokentype;\r\n    string  tokenname;\r\n    string  tokensymbol;\r\n    uint  tokendecimal;\r\n    uint tokensupply;\r\n    address owneraddresss;\r\n    string  sccode;\r\n\r\n    }\r\n        mapping(string => tokenstruct)tokendetails;\r\n        mapping(address => string)generate;\r\n\r\n\r\n\r\n\r\n    function createtoken(string memory tokentype,string memory tokenname,string memory tokensymbol,uint tokendecimal,uint tokensupply,address owneraddress)public  returns(bool)\r\n    {\r\n        tokendetails[tokenname].tokentype=tokentype;\r\n        tokendetails[tokenname].tokenname=tokenname;\r\n        tokendetails[tokenname].tokensymbol=tokensymbol;\r\n        tokendetails[tokenname].tokendecimal=tokendecimal;\r\n        tokendetails[tokenname].tokensupply=tokensupply;\r\n        tokendetails[tokenname].owneraddresss=owneraddress;\r\n        return true;\r\n    }\r\n\r\n\r\n    function gettoken(string memory tokenname)public view returns(string memory tokentype,string memory tokensymbol,uint tokendecimal,uint tokensupply,address owneraddress)\r\n    {\r\n        return (tokendetails[tokenname].tokentype,tokendetails[tokenname].tokensymbol,tokendetails[tokenname].tokendecimal,tokendetails[tokenname].tokensupply,tokendetails[tokenname].owneraddresss);\r\n\r\n    }\r\n\r\n    \r\n    function generatesccode(string memory tokenname,string memory sccode)public{\r\n\r\n        tokendetails[tokenname].sccode=sccode;\r\n\r\n    }\r\n\r\n\r\n}",
  "sourcePath": "D:\\Blockchain\\token - ganache - Copy\\contracts\\token.sol",
  "compiler": {
    "name": "solc",
    "version": "0.8.10+commit.fc410830.Emscripten.clang"
  },
  "schemaVersion": "3.4.4",
  "updatedAt": "2022-01-21T11:28:16.899Z",
  "networkType": "ethereum",
  "devdoc": {
    "kind": "dev",
    "methods": {},
    "version": 1
  },
  "userdoc": {
    "kind": "user",
    "methods": {},
    "version": 1
  }
}